{
  "address": "0x9748b6d59fd4C4f087294087bD94b6B9d95B4293",
  "abi": [
    {
      "inputs": [
        {
          "internalType": "uint256",
          "name": "baseRatePerYear",
          "type": "uint256"
        },
        {
          "internalType": "uint256",
          "name": "multiplierPerYear",
          "type": "uint256"
        },
        {
          "internalType": "uint256",
          "name": "jumpMultiplierPerYear",
          "type": "uint256"
        },
        {
          "internalType": "uint256",
          "name": "kink_",
          "type": "uint256"
        }
      ],
      "stateMutability": "nonpayable",
      "type": "constructor"
    },
    {
      "anonymous": false,
      "inputs": [
        {
          "indexed": false,
          "internalType": "uint256",
          "name": "baseRatePerBlock",
          "type": "uint256"
        },
        {
          "indexed": false,
          "internalType": "uint256",
          "name": "multiplierPerBlock",
          "type": "uint256"
        },
        {
          "indexed": false,
          "internalType": "uint256",
          "name": "jumpMultiplierPerBlock",
          "type": "uint256"
        },
        {
          "indexed": false,
          "internalType": "uint256",
          "name": "kink",
          "type": "uint256"
        }
      ],
      "name": "NewInterestParams",
      "type": "event"
    },
    {
      "inputs": [],
      "name": "baseRatePerBlock",
      "outputs": [
        {
          "internalType": "uint256",
          "name": "",
          "type": "uint256"
        }
      ],
      "stateMutability": "view",
      "type": "function"
    },
    {
      "inputs": [],
      "name": "blocksPerYear",
      "outputs": [
        {
          "internalType": "uint256",
          "name": "",
          "type": "uint256"
        }
      ],
      "stateMutability": "view",
      "type": "function"
    },
    {
      "inputs": [
        {
          "internalType": "uint256",
          "name": "cash",
          "type": "uint256"
        },
        {
          "internalType": "uint256",
          "name": "borrows",
          "type": "uint256"
        },
        {
          "internalType": "uint256",
          "name": "reserves",
          "type": "uint256"
        }
      ],
      "name": "getBorrowRate",
      "outputs": [
        {
          "internalType": "uint256",
          "name": "",
          "type": "uint256"
        }
      ],
      "stateMutability": "view",
      "type": "function"
    },
    {
      "inputs": [
        {
          "internalType": "uint256",
          "name": "cash",
          "type": "uint256"
        },
        {
          "internalType": "uint256",
          "name": "borrows",
          "type": "uint256"
        },
        {
          "internalType": "uint256",
          "name": "reserves",
          "type": "uint256"
        },
        {
          "internalType": "uint256",
          "name": "reserveFactorMantissa",
          "type": "uint256"
        }
      ],
      "name": "getSupplyRate",
      "outputs": [
        {
          "internalType": "uint256",
          "name": "",
          "type": "uint256"
        }
      ],
      "stateMutability": "view",
      "type": "function"
    },
    {
      "inputs": [],
      "name": "isInterestRateModel",
      "outputs": [
        {
          "internalType": "bool",
          "name": "",
          "type": "bool"
        }
      ],
      "stateMutability": "view",
      "type": "function"
    },
    {
      "inputs": [],
      "name": "jumpMultiplierPerBlock",
      "outputs": [
        {
          "internalType": "uint256",
          "name": "",
          "type": "uint256"
        }
      ],
      "stateMutability": "view",
      "type": "function"
    },
    {
      "inputs": [],
      "name": "kink",
      "outputs": [
        {
          "internalType": "uint256",
          "name": "",
          "type": "uint256"
        }
      ],
      "stateMutability": "view",
      "type": "function"
    },
    {
      "inputs": [],
      "name": "multiplierPerBlock",
      "outputs": [
        {
          "internalType": "uint256",
          "name": "",
          "type": "uint256"
        }
      ],
      "stateMutability": "view",
      "type": "function"
    },
    {
      "inputs": [
        {
          "internalType": "uint256",
          "name": "cash",
          "type": "uint256"
        },
        {
          "internalType": "uint256",
          "name": "borrows",
          "type": "uint256"
        },
        {
          "internalType": "uint256",
          "name": "reserves",
          "type": "uint256"
        }
      ],
      "name": "utilizationRate",
      "outputs": [
        {
          "internalType": "uint256",
          "name": "",
          "type": "uint256"
        }
      ],
      "stateMutability": "pure",
      "type": "function"
    }
  ],
  "transactionHash": "0x6abb1e9a8dfe745ad5a1a46cfad4706f1c8a893be21c24e64634b675162257c4",
  "args": [
    "0",
    "1000000000000000000",
    "4000000000000000000",
    "700000000000000000"
  ],
  "numDeployments": 2,
  "solcInputHash": "a822655fb04b3944b585567b09afe37c",
  "bytecode": "0x608060405234801561001057600080fd5b506040516104fb3803806104fb83398101604081905261002f916100be565b61003c625035da856100f4565b60015561004c625035da846100f4565b60005561005c625035da836100f4565b60028190556003829055600154600054604080519283526020830191909152810191909152606081018290527f6960ab234c7ef4b0c9197100f5393cfcde7c453ac910a27bd2000aa1dd4c068d9060800160405180910390a150505050610116565b600080600080608085870312156100d457600080fd5b505082516020840151604085015160609095015191969095509092509050565b60008261011157634e487b7160e01b600052601260045260246000fd5b500490565b6103d6806101256000396000f3fe608060405234801561001057600080fd5b50600436106100935760003560e01c8063a385fb9611610066578063a385fb96146100f2578063b8168816146100fc578063b9f9850a1461010f578063f14039de14610118578063fd2da3391461012157600080fd5b806315f24053146100985780632191f92a146100be5780636e71e2d8146100d65780638726bb89146100e9575b600080fd5b6100ab6100a63660046102bc565b61012a565b6040519081526020015b60405180910390f35b6100c6600181565b60405190151581526020016100b5565b6100ab6100e43660046102bc565b6101f8565b6100ab60005481565b6100ab625035da81565b6100ab61010a3660046102e8565b610240565b6100ab60025481565b6100ab60015481565b6100ab60035481565b6000806101388585856101f8565b9050600354811161017957600154670de0b6b3a76400006000548361015d9190610330565b610167919061034f565b6101719190610371565b9150506101f1565b6000600154670de0b6b3a76400006000546003546101979190610330565b6101a1919061034f565b6101ab9190610371565b90506000600354836101bd9190610389565b905081670de0b6b3a7640000600254836101d79190610330565b6101e1919061034f565b6101eb9190610371565b93505050505b9392505050565b600082610207575060006101f1565b816102128486610371565b61021c9190610389565b61022e670de0b6b3a764000085610330565b610238919061034f565b949350505050565b60008061025583670de0b6b3a7640000610389565b9050600061026487878761012a565b90506000670de0b6b3a764000061027b8484610330565b610285919061034f565b9050670de0b6b3a76400008161029c8a8a8a6101f8565b6102a69190610330565b6102b0919061034f565b98975050505050505050565b6000806000606084860312156102d157600080fd5b505081359360208301359350604090920135919050565b600080600080608085870312156102fe57600080fd5b5050823594602084013594506040840135936060013592509050565b634e487b7160e01b600052601160045260246000fd5b600081600019048311821515161561034a5761034a61031a565b500290565b60008261036c57634e487b7160e01b600052601260045260246000fd5b500490565b600082198211156103845761038461031a565b500190565b60008282101561039b5761039b61031a565b50039056fea2646970667358221220dec517622c876077d05501ed4db2a80c94c049988cd348f5062af13d4961996b64736f6c634300080b0033",
  "devdoc": {
    "author": "Compound",
    "kind": "dev",
    "methods": {
      "constructor": {
        "params": {
          "baseRatePerYear": "The approximate target base APR, as a mantissa (scaled by BASE)",
          "jumpMultiplierPerYear": "The multiplierPerBlock after hitting a specified utilization point",
          "kink_": "The utilization point at which the jump multiplier is applied",
          "multiplierPerYear": "The rate of increase in interest rate wrt utilization (scaled by BASE)"
        }
      },
      "getBorrowRate(uint256,uint256,uint256)": {
        "params": {
          "borrows": "The amount of borrows in the market",
          "cash": "The amount of cash in the market",
          "reserves": "The amount of reserves in the market"
        },
        "returns": {
          "_0": "The borrow rate percentage per block as a mantissa (scaled by BASE)"
        }
      },
      "getSupplyRate(uint256,uint256,uint256,uint256)": {
        "params": {
          "borrows": "The amount of borrows in the market",
          "cash": "The amount of cash in the market",
          "reserveFactorMantissa": "The current reserve factor for the market",
          "reserves": "The amount of reserves in the market"
        },
        "returns": {
          "_0": "The supply rate percentage per block as a mantissa (scaled by BASE)"
        }
      },
      "utilizationRate(uint256,uint256,uint256)": {
        "params": {
          "borrows": "The amount of borrows in the market",
          "cash": "The amount of cash in the market",
          "reserves": "The amount of reserves in the market (currently unused)"
        },
        "returns": {
          "_0": "The utilization rate as a mantissa between [0, BASE]"
        }
      }
    },
    "title": "Compound's JumpRateModel Contract",
    "version": 1
  },
  "userdoc": {
    "kind": "user",
    "methods": {
      "baseRatePerBlock()": {
        "notice": "The base interest rate which is the y-intercept when utilization rate is 0"
      },
      "blocksPerYear()": {
        "notice": "The approximate number of blocks per year that is assumed by the interest rate model"
      },
      "constructor": {
        "notice": "Construct an interest rate model"
      },
      "getBorrowRate(uint256,uint256,uint256)": {
        "notice": "Calculates the current borrow rate per block, with the error code expected by the market"
      },
      "getSupplyRate(uint256,uint256,uint256,uint256)": {
        "notice": "Calculates the current supply rate per block"
      },
      "isInterestRateModel()": {
        "notice": "Indicator that this is an InterestRateModel contract (for inspection)"
      },
      "jumpMultiplierPerBlock()": {
        "notice": "The multiplierPerBlock after hitting a specified utilization point"
      },
      "kink()": {
        "notice": "The utilization point at which the jump multiplier is applied"
      },
      "multiplierPerBlock()": {
        "notice": "The multiplier of utilization rate that gives the slope of the interest rate"
      },
      "utilizationRate(uint256,uint256,uint256)": {
        "notice": "Calculates the utilization rate of the market: `borrows / (cash + borrows - reserves)`"
      }
    },
    "version": 1
  },
  "storageLayout": {
    "storage": [
      {
        "astId": 18986,
        "contract": "src/JumpRateModel.sol:JumpRateModel",
        "label": "multiplierPerBlock",
        "offset": 0,
        "slot": "0",
        "type": "t_uint256"
      },
      {
        "astId": 18989,
        "contract": "src/JumpRateModel.sol:JumpRateModel",
        "label": "baseRatePerBlock",
        "offset": 0,
        "slot": "1",
        "type": "t_uint256"
      },
      {
        "astId": 18992,
        "contract": "src/JumpRateModel.sol:JumpRateModel",
        "label": "jumpMultiplierPerBlock",
        "offset": 0,
        "slot": "2",
        "type": "t_uint256"
      },
      {
        "astId": 18995,
        "contract": "src/JumpRateModel.sol:JumpRateModel",
        "label": "kink",
        "offset": 0,
        "slot": "3",
        "type": "t_uint256"
      }
    ],
    "types": {
      "t_uint256": {
        "encoding": "inplace",
        "label": "uint256",
        "numberOfBytes": "32"
      }
    }
  }
}