{
  "address": "0x81561ED4045DA9e0887F6fC53be929aD7236D461",
  "abi": [
    {
      "inputs": [
        {
          "internalType": "uint256",
          "name": "_baseRatePerYear",
          "type": "uint256"
        }
      ],
      "stateMutability": "nonpayable",
      "type": "constructor"
    },
    {
      "inputs": [
        {
          "internalType": "contract CToken",
          "name": "ctoken",
          "type": "address"
        }
      ],
      "name": "FailedPriceRetrieval",
      "type": "error"
    },
    {
      "inputs": [
        {
          "internalType": "address",
          "name": "sender",
          "type": "address"
        }
      ],
      "name": "SenderNotAdmin",
      "type": "error"
    },
    {
      "anonymous": false,
      "inputs": [
        {
          "indexed": false,
          "internalType": "uint256",
          "name": "oldAdjusterCoefficient",
          "type": "uint256"
        },
        {
          "indexed": false,
          "internalType": "uint256",
          "name": "newAdjusterCoefficient",
          "type": "uint256"
        }
      ],
      "name": "NewAdjusterCoefficient",
      "type": "event"
    },
    {
      "anonymous": false,
      "inputs": [
        {
          "indexed": false,
          "internalType": "address",
          "name": "oldAdmin",
          "type": "address"
        },
        {
          "indexed": false,
          "internalType": "address",
          "name": "newAdmin",
          "type": "address"
        }
      ],
      "name": "NewAdmin",
      "type": "event"
    },
    {
      "anonymous": false,
      "inputs": [
        {
          "indexed": false,
          "internalType": "uint256",
          "name": "oldBaseRateMantissa",
          "type": "uint256"
        },
        {
          "indexed": false,
          "internalType": "uint256",
          "name": "newBaseRateMantissa",
          "type": "uint256"
        }
      ],
      "name": "NewBaseRate",
      "type": "event"
    },
    {
      "anonymous": false,
      "inputs": [
        {
          "indexed": false,
          "internalType": "uint256",
          "name": "baserateperblock",
          "type": "uint256"
        }
      ],
      "name": "NewInterestParams",
      "type": "event"
    },
    {
      "anonymous": false,
      "inputs": [
        {
          "indexed": false,
          "internalType": "address",
          "name": "oldOracle",
          "type": "address"
        },
        {
          "indexed": false,
          "internalType": "address",
          "name": "newOracle",
          "type": "address"
        }
      ],
      "name": "NewPriceOracle",
      "type": "event"
    },
    {
      "anonymous": false,
      "inputs": [
        {
          "indexed": false,
          "internalType": "uint256",
          "name": "oldUpdateFrequency",
          "type": "uint256"
        },
        {
          "indexed": false,
          "internalType": "uint256",
          "name": "newUpdateFrequency",
          "type": "uint256"
        }
      ],
      "name": "NewUpdateFrequency",
      "type": "event"
    },
    {
      "inputs": [],
      "name": "BASE",
      "outputs": [
        {
          "internalType": "uint256",
          "name": "",
          "type": "uint256"
        }
      ],
      "stateMutability": "view",
      "type": "function"
    },
    {
      "inputs": [],
      "name": "BlocksPerYear",
      "outputs": [
        {
          "internalType": "uint256",
          "name": "",
          "type": "uint256"
        }
      ],
      "stateMutability": "view",
      "type": "function"
    },
    {
      "inputs": [
        {
          "internalType": "uint256",
          "name": "newAdjusterCoefficient",
          "type": "uint256"
        }
      ],
      "name": "_setAdjusterCoefficient",
      "outputs": [],
      "stateMutability": "nonpayable",
      "type": "function"
    },
    {
      "inputs": [
        {
          "internalType": "uint256",
          "name": "newBaseRateMantissa",
          "type": "uint256"
        }
      ],
      "name": "_setBaseRatePerYear",
      "outputs": [],
      "stateMutability": "nonpayable",
      "type": "function"
    },
    {
      "inputs": [
        {
          "internalType": "uint256",
          "name": "newUpdateFrequency",
          "type": "uint256"
        }
      ],
      "name": "_setUpdateFrequency",
      "outputs": [],
      "stateMutability": "nonpayable",
      "type": "function"
    },
    {
      "inputs": [],
      "name": "adjusterCoefficient",
      "outputs": [
        {
          "internalType": "uint256",
          "name": "",
          "type": "uint256"
        }
      ],
      "stateMutability": "view",
      "type": "function"
    },
    {
      "inputs": [],
      "name": "baseRatePerBlock",
      "outputs": [
        {
          "internalType": "uint256",
          "name": "",
          "type": "uint256"
        }
      ],
      "stateMutability": "view",
      "type": "function"
    },
    {
      "inputs": [],
      "name": "baseRatePerYear",
      "outputs": [
        {
          "internalType": "uint256",
          "name": "",
          "type": "uint256"
        }
      ],
      "stateMutability": "view",
      "type": "function"
    },
    {
      "inputs": [],
      "name": "cUsdc",
      "outputs": [
        {
          "internalType": "contract CErc20",
          "name": "",
          "type": "address"
        }
      ],
      "stateMutability": "view",
      "type": "function"
    },
    {
      "inputs": [],
      "name": "decimals",
      "outputs": [
        {
          "internalType": "uint256",
          "name": "",
          "type": "uint256"
        }
      ],
      "stateMutability": "view",
      "type": "function"
    },
    {
      "inputs": [
        {
          "internalType": "uint256",
          "name": "cash",
          "type": "uint256"
        },
        {
          "internalType": "uint256",
          "name": "borrows",
          "type": "uint256"
        },
        {
          "internalType": "uint256",
          "name": "reserves",
          "type": "uint256"
        }
      ],
      "name": "getBorrowRate",
      "outputs": [
        {
          "internalType": "uint256",
          "name": "",
          "type": "uint256"
        }
      ],
      "stateMutability": "view",
      "type": "function"
    },
    {
      "inputs": [
        {
          "internalType": "uint256",
          "name": "cash",
          "type": "uint256"
        },
        {
          "internalType": "uint256",
          "name": "borrows",
          "type": "uint256"
        },
        {
          "internalType": "uint256",
          "name": "reserves",
          "type": "uint256"
        },
        {
          "internalType": "uint256",
          "name": "reserveFactorMantissa",
          "type": "uint256"
        }
      ],
      "name": "getSupplyRate",
      "outputs": [
        {
          "internalType": "uint256",
          "name": "",
          "type": "uint256"
        }
      ],
      "stateMutability": "view",
      "type": "function"
    },
    {
      "inputs": [
        {
          "internalType": "address",
          "name": "cUsdcAddr",
          "type": "address"
        },
        {
          "internalType": "address",
          "name": "oracleAddress",
          "type": "address"
        }
      ],
      "name": "initialize",
      "outputs": [],
      "stateMutability": "nonpayable",
      "type": "function"
    },
    {
      "inputs": [],
      "name": "isInterestRateModel",
      "outputs": [
        {
          "internalType": "bool",
          "name": "",
          "type": "bool"
        }
      ],
      "stateMutability": "view",
      "type": "function"
    },
    {
      "inputs": [],
      "name": "lastUpdateBlock",
      "outputs": [
        {
          "internalType": "uint256",
          "name": "",
          "type": "uint256"
        }
      ],
      "stateMutability": "view",
      "type": "function"
    },
    {
      "inputs": [],
      "name": "oracle",
      "outputs": [
        {
          "internalType": "contract PriceOracle",
          "name": "",
          "type": "address"
        }
      ],
      "stateMutability": "view",
      "type": "function"
    },
    {
      "inputs": [],
      "name": "scale",
      "outputs": [
        {
          "internalType": "uint256",
          "name": "",
          "type": "uint256"
        }
      ],
      "stateMutability": "view",
      "type": "function"
    },
    {
      "inputs": [
        {
          "internalType": "address",
          "name": "newAdmin",
          "type": "address"
        }
      ],
      "name": "setAdmin",
      "outputs": [],
      "stateMutability": "nonpayable",
      "type": "function"
    },
    {
      "inputs": [
        {
          "internalType": "address",
          "name": "oracle_",
          "type": "address"
        }
      ],
      "name": "setOracle",
      "outputs": [],
      "stateMutability": "nonpayable",
      "type": "function"
    },
    {
      "inputs": [],
      "name": "updateBaseRate",
      "outputs": [],
      "stateMutability": "nonpayable",
      "type": "function"
    },
    {
      "inputs": [],
      "name": "updateFrequency",
      "outputs": [
        {
          "internalType": "uint256",
          "name": "",
          "type": "uint256"
        }
      ],
      "stateMutability": "view",
      "type": "function"
    }
  ],
  "transactionHash": "0x375ccdad95f7a6998c380ee36fee624978094835cc37864572465bdd7670b996",
  "args": [
    "20000000000000000"
  ],
  "numDeployments": 2,
  "solcInputHash": "a822655fb04b3944b585567b09afe37c",
  "bytecode": "0x608060405261087060065534801561001657600080fd5b5060405162000eba38038062000eba8339810160408190526100379161013b565b80600381905550610058625035da826100ac60201b6109171790919060201c565b60048190556040519081527f482980278ae2c1b5635532c44722d084a208f79b8f4212a3fc8e6042901552cb9060200160405180910390a150600980546001600160a01b03191633179055436002556101cb565b60006100f483836040518060400160405280601a81526020017f536166654d6174683a206469766973696f6e206279207a65726f0000000000008152506100fb60201b60201c565b9392505050565b600081836101255760405162461bcd60e51b815260040161011c9190610154565b60405180910390fd5b50600061013284866101a9565b95945050505050565b60006020828403121561014d57600080fd5b5051919050565b600060208083528351808285015260005b8181101561018157858101830151858201604001528201610165565b81811115610193576000604083870101525b50601f01601f1916929092016040019392505050565b6000826101c657634e487b7160e01b600052601260045260246000fd5b500490565b610cdf80620001db6000396000f3fe608060405234801561001057600080fd5b50600436106101375760003560e01c8063704b6c02116100b8578063d08c96fc1161007c578063d08c96fc14610265578063de3f948514610278578063e9a2131914610281578063ec342ad014610289578063f14039de14610298578063f51e181a146102a157600080fd5b8063704b6c02146101f25780637adbf973146102055780637dc0d1d014610218578063a218141b14610243578063b81688161461024c57600080fd5b8063313ce567116100ff578063313ce567146101a7578063477caf6b146101b0578063485cc955146101c35780634930e038146101d6578063673ea086146101e957600080fd5b80630984dea41461013c57806315f24053146101595780632191f92a1461017157806324d6f333146101895780632d349a941461019e575b600080fd5b610146625035da81565b6040519081526020015b60405180910390f35b610146610167366004610999565b6004549392505050565b610179600181565b6040519015158152602001610150565b61019c6101973660046109c5565b6102aa565b005b61014660055481565b61014660005481565b61019c6101be3660046109c5565b610363565b61019c6101d13660046109f6565b610413565b61019c6101e43660046109c5565b6105d5565b61014660065481565b61019c610200366004610a2f565b610679565b61019c610213366004610a2f565b6106c8565b60075461022b906001600160a01b031681565b6040516001600160a01b039091168152602001610150565b61014660025481565b61014661025a366004610a53565b600454949350505050565b60085461022b906001600160a01b031681565b61014660035481565b61019c61074f565b610146670de0b6b3a764000081565b61014660045481565b61014660015481565b6009546001600160a01b0316331461031d5760405162461bcd60e51b815260206004820152602b60248201527f6f6e6c79207468652061646d696e206d6179207365742074686520757064617460448201526a65206672657175656e637960a81b60648201526084015b60405180910390fd5b600680549082905560408051828152602081018490527f24eb712b5908e642132e2dd0ee4c85e189162ea03242c80f82d94db64f2ba9d191015b60405180910390a15050565b6009546001600160a01b031633146103d55760405162461bcd60e51b815260206004820152602f60248201527f6f6e6c79207468652061646d696e206d617920736574207468652061646a757360448201526e1d195c8818dbd959999a58da595b9d608a1b6064820152608401610314565b600580549082905560408051828152602081018490527fae1920adb21e7676257fad295b40649a2bea63dc815e66532950aba41e2d4fee9101610357565b6007546001600160a01b031615801561043557506008546001600160a01b0316155b61043e57600080fd5b6009546001600160a01b0316331461046b5760405163c0d4daef60e01b8152336004820152602401610314565b600754600880546001600160a01b0319166001600160a01b0385811691821790925560408051636f307dc360e01b8152905192909316929091636f307dc3916004808201926020929091908290030181865afa1580156104cf573d6000803e3d6000fd5b505050506040513d601f19601f820116820180604052508101906104f39190610a85565b6001600160a01b031663313ce5676040518163ffffffff1660e01b8152600401602060405180830381865afa158015610530573d6000803e3d6000fd5b505050506040513d601f19601f820116820180604052508101906105549190610aa2565b60ff166000819055610567906012610adb565b61057290600a610bd6565b600155600780546001600160a01b0319166001600160a01b0384811691821790925560408051928416835260208301919091527fd52b2b9b7e9ee655fcb95d2e5b9e0c9f69e7ef2b8e9d2d0ea78402d576d22e22910160405180910390a1505050565b6009546001600160a01b0316331461063b5760405162461bcd60e51b8152602060048201526024808201527f6f6e6c79207468652061646d696e206d617920736574207468652062617365206044820152637261746560e01b6064820152608401610314565b600380549082905560408051828152602081018490527f725ddbfd43744d5aa9deca7b3f1d89f8d0ab476b969a23d69d083f5b37d994369101610357565b6009546001600160a01b031633146106a65760405163c0d4daef60e01b8152336004820152602401610314565b600980546001600160a01b0319166001600160a01b0392909216919091179055565b6009546001600160a01b031633146106f55760405163c0d4daef60e01b8152336004820152602401610314565b600780546001600160a01b038381166001600160a01b031983168117909355604080519190921680825260208201939093527fd52b2b9b7e9ee655fcb95d2e5b9e0c9f69e7ef2b8e9d2d0ea78402d576d22e229101610357565b60025443906000906107619083610adb565b90506006548111156109135760015460075460085460405163fc57d4df60e01b81526001600160a01b03918216600482015260009392919091169063fc57d4df90602401602060405180830381865afa1580156107c2573d6000803e3d6000fd5b505050506040513d601f19601f820116820180604052508101906107e69190610be2565b6107f09190610bfb565b9050600081610807670de0b6b3a764000080610c1d565b6108119190610bfb565b9050600081670de0b6b3a7640000101561083c57610837670de0b6b3a764000083610adb565b61084e565b61084e82670de0b6b3a7640000610adb565b90506000670de0b6b3a7640000600554836108699190610c1d565b6108739190610bfb565b90506000670de0b6b3a76400008411156108ad576003548211156108985760006108a6565b816003546108a69190610adb565b90506108bd565b6003546108ba9083610c3c565b90505b60038190556108cf81625035da610917565b60045560028790556003546040519081527f482980278ae2c1b5635532c44722d084a208f79b8f4212a3fc8e6042901552cb9060200160405180910390a150505050505b5050565b600061095983836040518060400160405280601a81526020017f536166654d6174683a206469766973696f6e206279207a65726f000000000000815250610962565b90505b92915050565b600081836109835760405162461bcd60e51b81526004016103149190610c54565b5060006109908486610bfb565b95945050505050565b6000806000606084860312156109ae57600080fd5b505081359360208301359350604090920135919050565b6000602082840312156109d757600080fd5b5035919050565b6001600160a01b03811681146109f357600080fd5b50565b60008060408385031215610a0957600080fd5b8235610a14816109de565b91506020830135610a24816109de565b809150509250929050565b600060208284031215610a4157600080fd5b8135610a4c816109de565b9392505050565b60008060008060808587031215610a6957600080fd5b5050823594602084013594506040840135936060013592509050565b600060208284031215610a9757600080fd5b8151610a4c816109de565b600060208284031215610ab457600080fd5b815160ff81168114610a4c57600080fd5b634e487b7160e01b600052601160045260246000fd5b600082821015610aed57610aed610ac5565b500390565b600181815b80851115610b2d578160001904821115610b1357610b13610ac5565b80851615610b2057918102915b93841c9390800290610af7565b509250929050565b600082610b445750600161095c565b81610b515750600061095c565b8160018114610b675760028114610b7157610b8d565b600191505061095c565b60ff841115610b8257610b82610ac5565b50506001821b61095c565b5060208310610133831016604e8410600b8410161715610bb0575081810a61095c565b610bba8383610af2565b8060001904821115610bce57610bce610ac5565b029392505050565b60006109598383610b35565b600060208284031215610bf457600080fd5b5051919050565b600082610c1857634e487b7160e01b600052601260045260246000fd5b500490565b6000816000190483118215151615610c3757610c37610ac5565b500290565b60008219821115610c4f57610c4f610ac5565b500190565b600060208083528351808285015260005b81811015610c8157858101830151858201604001528201610c65565b81811115610c93576000604083870101525b50601f01601f191692909201604001939250505056fea26469706673582212204c1862ac04e1781b3512845d7385ef38654deb54da54b46fa9b1f8eeb3e7ff3464736f6c634300080b0033",
  "devdoc": {
    "author": "canto",
    "kind": "dev",
    "methods": {
      "_setAdjusterCoefficient(uint256)": {
        "details": "Admin function to set per-market adjuster coefficient",
        "params": {
          "newAdjusterCoefficient": "The new adjuster coefficient, scaled by 1e18"
        }
      },
      "_setBaseRatePerYear(uint256)": {
        "details": "Admin function to set per-market base interest rate",
        "params": {
          "newBaseRateMantissa": "The new base interest rate, scaled by 1e18"
        }
      },
      "_setUpdateFrequency(uint256)": {
        "details": "Admin function to set the update frequency",
        "params": {
          "newUpdateFrequency": "The new update frequency, in blocks"
        }
      },
      "constructor": {
        "params": {
          "_baseRatePerYear": "The approximate target base APR, as a mantissa (scaled by 1e18), set by admin, default 2%"
        }
      },
      "getBorrowRate(uint256,uint256,uint256)": {
        "params": {
          "borrows": "The total amount of borrows the market has outstanding",
          "cash": "The total amount of cash the market has",
          "reserves": "The total amount of reserves the market has"
        },
        "returns": {
          "_0": "The borrow rate per block (as a percentage, and scaled by 1e18)"
        }
      },
      "getSupplyRate(uint256,uint256,uint256,uint256)": {
        "returns": {
          "_0": "Note's supply rate percentage per block as a mantissa (scaled by 1e18)"
        }
      }
    },
    "title": "note's interest rate model contract",
    "version": 1
  },
  "userdoc": {
    "errors": {
      "FailedPriceRetrieval(address)": [
        {
          "notice": "reverted if the getUnderlying Price fails "
        }
      ],
      "SenderNotAdmin(address)": [
        {
          "notice": "reverted if sender is not admin"
        }
      ]
    },
    "events": {
      "NewAdjusterCoefficient(uint256,uint256)": {
        "notice": "Emitted when adjuster coefficient is changed by admin"
      },
      "NewAdmin(address,address)": {
        "notice": "Emitted when new admin is set"
      },
      "NewBaseRate(uint256,uint256)": {
        "notice": "Emitted when base rate is changed by admin"
      },
      "NewInterestParams(uint256)": {
        "notice": "Emitted when new baserateperblock is set"
      },
      "NewPriceOracle(address,address)": {
        "notice": "Emitted when new PriceOracle is set"
      },
      "NewUpdateFrequency(uint256,uint256)": {
        "notice": "Emitted when update frequency is changed by admin"
      }
    },
    "kind": "user",
    "methods": {
      "BlocksPerYear()": {
        "notice": "The approximate number of blocks per year that is assumed by the interest rate model"
      },
      "_setAdjusterCoefficient(uint256)": {
        "notice": "Sets the adjuster coefficient for Note"
      },
      "_setBaseRatePerYear(uint256)": {
        "notice": "Sets the base interest rate for Note"
      },
      "_setUpdateFrequency(uint256)": {
        "notice": "Sets the update frequency for Note's interest rate"
      },
      "adjusterCoefficient()": {
        "notice": "The level of aggressiveness to adjust interest rate according to twap's deviation from the peg"
      },
      "baseRatePerBlock()": {
        "notice": "baseRatePerBlock The per block interest rate, as a mantissa (scaled by 1e18)"
      },
      "baseRatePerYear()": {
        "notice": "baseRatePerYear The per year interest rate, as a mantissa (scaled by 1e18)"
      },
      "cUsdc()": {
        "notice": "The CToken identifier for Note"
      },
      "constructor": {
        "notice": "Construct an interest rate model"
      },
      "getBorrowRate(uint256,uint256,uint256)": {
        "notice": "Calculates the current borrow interest rate per block"
      },
      "getSupplyRate(uint256,uint256,uint256,uint256)": {
        "notice": "Calculates the current supply rate per block, which is the same as the borrow rateThe following parameters are irrelevent for calculating Note's interest rate. They are passed in to align with the standard function definition `getSupplyRate` in InterestRateModel"
      },
      "isInterestRateModel()": {
        "notice": "Indicator that this is an InterestRateModel contract (for inspection)"
      },
      "lastUpdateBlock()": {
        "notice": "The variable to keep track of the last update on Note's interest rate, initialized at the current block number"
      },
      "updateBaseRate()": {
        "notice": "Updates the Note's base rate per year at a given interval (Update Frequency)This interest rate is calculated as follows f(x) = max(0, (1 - $NOTE) * adjusterCoefficient + priorInterestRate ) If Note is trading above 1$ then lower the interest rate to benefit suppliers This function is called in accrue Interest by the cNote Contract "
      },
      "updateFrequency()": {
        "notice": "The frequency of updating Note's base rate"
      }
    },
    "version": 1
  },
  "storageLayout": {
    "storage": [
      {
        "astId": 20862,
        "contract": "src/NoteInterest.sol:NoteRateModel",
        "label": "decimals",
        "offset": 0,
        "slot": "0",
        "type": "t_uint256"
      },
      {
        "astId": 20864,
        "contract": "src/NoteInterest.sol:NoteRateModel",
        "label": "scale",
        "offset": 0,
        "slot": "1",
        "type": "t_uint256"
      },
      {
        "astId": 20867,
        "contract": "src/NoteInterest.sol:NoteRateModel",
        "label": "lastUpdateBlock",
        "offset": 0,
        "slot": "2",
        "type": "t_uint256"
      },
      {
        "astId": 20870,
        "contract": "src/NoteInterest.sol:NoteRateModel",
        "label": "baseRatePerYear",
        "offset": 0,
        "slot": "3",
        "type": "t_uint256"
      },
      {
        "astId": 20873,
        "contract": "src/NoteInterest.sol:NoteRateModel",
        "label": "baseRatePerBlock",
        "offset": 0,
        "slot": "4",
        "type": "t_uint256"
      },
      {
        "astId": 20876,
        "contract": "src/NoteInterest.sol:NoteRateModel",
        "label": "adjusterCoefficient",
        "offset": 0,
        "slot": "5",
        "type": "t_uint256"
      },
      {
        "astId": 20880,
        "contract": "src/NoteInterest.sol:NoteRateModel",
        "label": "updateFrequency",
        "offset": 0,
        "slot": "6",
        "type": "t_uint256"
      },
      {
        "astId": 20883,
        "contract": "src/NoteInterest.sol:NoteRateModel",
        "label": "oracle",
        "offset": 0,
        "slot": "7",
        "type": "t_contract(PriceOracle)21356"
      },
      {
        "astId": 20887,
        "contract": "src/NoteInterest.sol:NoteRateModel",
        "label": "cUsdc",
        "offset": 0,
        "slot": "8",
        "type": "t_contract(CErc20)2096"
      },
      {
        "astId": 20890,
        "contract": "src/NoteInterest.sol:NoteRateModel",
        "label": "admin",
        "offset": 0,
        "slot": "9",
        "type": "t_address"
      }
    ],
    "types": {
      "t_address": {
        "encoding": "inplace",
        "label": "address",
        "numberOfBytes": "20"
      },
      "t_contract(CErc20)2096": {
        "encoding": "inplace",
        "label": "contract CErc20",
        "numberOfBytes": "20"
      },
      "t_contract(PriceOracle)21356": {
        "encoding": "inplace",
        "label": "contract PriceOracle",
        "numberOfBytes": "20"
      },
      "t_uint256": {
        "encoding": "inplace",
        "label": "uint256",
        "numberOfBytes": "32"
      }
    }
  }
}